:020000040000FA
:100000000C9494000C94BC000C94BC000C94BC00A8
:100010000C94BC000C94BC000C94BC000C94BC0070
:100020000C94BC000C94BC000C94BC000C94BC0060
:100030000C94BC000C94BC000C94BC000C94BC0050
:100040000C9448020C94BC000C9416020C94F00121
:100050000C94BC000C94BC000C94BC000C94BC0030
:100060000C94BC000C94BC0007634236B79BD8A725
:100070001A39685618AEBAAB558C1D3CB7CC5763CD
:10008000BD6DEDFD753EF6177231BF000000803F7B
:1000900008000000BE922449123EABAAAA2ABECD97
:1000A000CCCC4C3E00000080BEABAAAAAA3E000009
:1000B0000000BF000000803F000000000008417801
:1000C000D3BB4387D1133D190E3CC3BD4282AD2B38
:1000D0003E68EC8276BED98FE1A93E4C80EFFFBE30
:1000E00001C4FF7F3F000000000000000000250069
:1000F00028002B0000000000240027002A00040430
:1001000004040404040402020202020203030303BF
:10011000030301020408102040800102040810209B
:10012000010204081020920211241FBECFEFD8E074
:10013000DEBFCDBF11E0A0E0B1E0EEE7F2E102C02A
:1001400005900D92A631B107D9F721E0A6E1B1E003
:1001500001C01D92A23CB207E1F710E0C4E9D0E073
:1001600004C02197FE010E943709C339D107C9F79E
:100170000E940E030C943D090C940000AF92BF92B4
:10018000CF92DF92EF92FF920F931F93CF93DF9363
:100190006C017B018B01040F151FEB015E01AE1892
:1001A000BF08C017D10759F06991D601ED91FC91B4
:1001B0000190F081E02DC6010995892B79F7C501E1
:1001C000DF91CF911F910F91FF90EF90DF90CF9033
:1001D000BF90AF900895FC01538D448D252F30E0E2
:1001E000842F90E0821B930B541710F0CF96089544
:1001F00001970895FC01918D828D981761F0A28D71
:10020000AE0FBF2FB11D5D968C91928D9F5F9F7336
:10021000928F90E008958FEF9FEF0895FC01918DEC
:10022000828D981731F0828DE80FF11D858D90E059
:1002300008958FEF9FEF0895FC01918D228D892FF6
:1002400090E0805C9F4F821B91098F7399270895DE
:100250008FE191E00E941C0121E0892B09F420E04C
:10026000822F089580E090E0892B29F00E942801D8
:1002700081110C9400000895FC01A48DA80FB92FE2
:10028000B11DA35ABF4F2C91848D90E001968F73BE
:100290009927848FA689B7892C93A089B1898C91DD
:1002A000837080648C93938D848D981306C002882C
:1002B000F389E02D80818F7D80830895EF92FF92F6
:1002C0000F931F93CF93DF93EC0181E0888F9B8D79
:1002D0008C8D98131AC0E889F989808185FF15C033
:1002E0009FB7F894EE89FF896083E889F989808156
:1002F0008370806480839FBF81E090E0DF91CF9125
:100300001F910F91FF90EF900895F62E0B8D10E046
:100310000F5F1F4F0F731127E02E8C8D8E110CC0B5
:100320000FB607FCFACFE889F989808185FFF5CF00
:10033000CE010E943C01F1CFEB8DEC0FFD2FF11DA2
:10034000E35AFF4FF0829FB7F8940B8FEA89FB893D
:1003500080818062CFCFCF93DF93EC01888D88239B
:10036000B9F0AA89BB89E889F9898C9185FD03C018
:10037000808186FD0DC00FB607FCF7CF8C9185FFFD
:10038000F2CF808185FFEDCFCE010E943C01E9CF05
:10039000DF91CF9108953FB7F89480911701909124
:1003A0001801A0911901B0911A0126B5A89B05C0AA
:1003B0002F3F19F00196A11DB11D3FBFBA2FA92FE4
:1003C000982F8827BC01CD01620F711D811D911DE1
:1003D00042E0660F771F881F991F4A95D1F708954D
:1003E0001F920F920FB60F9211242F933F934F93AA
:1003F0005F936F937F938F939F93AF93BF93EF938D
:10040000FF938FE191E00E943C01FF91EF91BF913A
:10041000AF919F918F917F916F915F914F913F919C
:100420002F910F900FBE0F901F9018951F920F9253
:100430000FB60F9211242F938F939F93EF93FF93F7
:10044000E0912F01F09130018081E0913501F09130
:10045000360182FD1BC09081809138018F5F8F73C0
:1004600020913901821741F0E0913801F0E0E15E1E
:10047000FE4F958F80933801FF91EF919F918F915F
:100480002F910F900FBE0F901F9018958081F4CF81
:100490001F920F920FB60F9211242F933F938F93B9
:1004A0009F93AF93BF9380911B0190911C01A091EA
:1004B0001D01B0911E013091160123E0230F2D374D
:1004C00058F50196A11DB11D2093160180931B01C3
:1004D00090931C01A0931D01B0931E018091170100
:1004E00090911801A0911901B0911A010196A11DD6
:1004F000B11D8093170190931801A0931901B09337
:100500001A01BF91AF919F918F913F912F910F90C1
:100510000FBE0F901F90189526E8230F0296A11D7D
:10052000B11DD2CFCF93DF931092220110922101FF
:1005300088EE93E0A0E0B0E0809323019093240143
:10054000A0932501B093260185E091E090932001CE
:1005500080931F0185EC90E090932C0180932B01F8
:1005600084EC90E090932E0180932D0180EC90E03C
:100570009093300180932F0181EC90E090933201B1
:100580008093310182EC90E09093340180933301A9
:1005900086EC90E0909336018093350110923801FB
:1005A0001092390110923A0110923B018EE090E0D6
:1005B0009093BD018093BC0188E394E0A0E0B0E09B
:1005C0008093BE019093BF01A093C001B093C1017D
:1005D000E0E2F1E02491ECE0F1E084918823C1F0C5
:1005E00090E0880F991FFC01EC50FF4FC591D4910A
:1005F000FC01E651FF4FA591B4919FB7F894888113
:10060000E22FE0958E2388838C91E823EC939FBFA3
:1006100081E080930001DF91CF910895CF93DF9324
:10062000CDB7DEB7E4970FB6F894DEBF0FBECDBFEF
:10063000789484B5826084BD84B5816084BD85B5BD
:10064000826085BD85B5816085BD80916E008160C9
:1006500080936E001092810080918100826080936F
:100660008100809181008160809381008091800071
:100670008160809380008091B10084608093B1009C
:100680008091B00081608093B00080917A00846096
:1006900080937A0080917A00826080937A008091C2
:1006A0007A00816080937A0080917A0080688093DC
:1006B0007A001092C100E0912F01F091300182E0A8
:1006C0008083E0912B01F0912C011082E0912D01AB
:1006D000F0912E018FEC808310923701E09133016D
:1006E000F091340186E08083E0913101F091320194
:1006F000808180618083E0913101F09132018081BD
:1007000088608083E0913101F091320180818068BE
:100710008083E0913101F091320180818F7D80836F
:1007200088248A9493E0992EA12CB12CCE010196B5
:100730001C01FE01F396FCABEBAB0E94CB012B013D
:100740003C0185E0C82ED12CE12CF12C0E94CB017C
:100750006419750986099709683E734081059105FA
:10076000A8F3F1E0CF1AD108E108F10828EE420E13
:1007700023E0521E611C711CC114D104E104F10478
:1007800029F78FB7F89440911B0150911C0160919B
:100790001D0170911E018FBFF10122E311922A9574
:1007A000E9F7F1018091BC018E3008F08E50209164
:1007B000000190E4299F900111248770822B80937F
:1007C0007C0080917A00806480937A0080917A0026
:1007D00086FDFCCF90917800809179008927982739
:1007E0008927819391938BA99CA98E179F07D1F696
:1007F00088E190E0F10130E020E0A1E0281739071E
:100800008CF44191519160817181641775073CF4BA
:10081000DF0112976D937C9351834083A0E02F5F9B
:100820003F4FECCFA11102C0019721F7A98DBA8DDE
:100830004091BE015091BF016091C0017091C10112
:10084000483394E059076105710571F528E833E1F3
:100850000E943009A50194010E941D05CA01B90139
:100860000E94890620E030E04AE754E40E94DF0558
:1008700029E23CE54FE95FEB0E94AB0728EB3EE144
:1008800043ED51E40E943E070E9451068B019801FE
:100890000930110514F429E030E0213531050CF45C
:1008A00067C020E530E064C0463BEEE45E076105CA
:1008B0007105E9F428E833E10E943009A5019401AB
:1008C0000E941D05CA01B9010E94890620E030E09E
:1008D0004AE754E40E94DF0521EE3AE744E95FEB82
:1008E0000E94AB072AEF3EE741E752E4CBCF4E3AF6
:1008F000F1E05F0761057105E9F428E833E10E9442
:100900003009A50194010E941D05CA01B9010E9488
:10091000890620E030E04AE754E40E94DF052BE836
:100920003CE647E85FEB0E94AB072EEA37E441E480
:1009300051E4A8CF443958486140710509F0A7CF68
:1009400028E833E10E943009A50194010E941D05A9
:10095000CA01B9010E9489066B017C0120E030E0E8
:100960004FEA54E40E94DA0587FF3FC029E030E0F7
:10097000032E000C440B550B19A27E0181E2E80EF8
:10098000F11CCA01B9012AE030E040E050E00E94C9
:100990003C05605DF70162937F012115310541053A
:1009A000510579F7309761F001900020E9F7319710
:1009B000AF014E195F09B7018FE191E00E94BE00BF
:1009C00042E050E063E171E08FE191E00E94BE00FF
:1009D00080E090E0892B09F4B0CE0E9428018823A2
:1009E00009F4A7CE0E940000A1CE20E030E44EE43E
:1009F00055E4C701B6010E94390718160CF4B6CFAA
:100A000020E030EA4CE854E4C701B6010E946D05CD
:100A100020E030E04AE754E40E94DF0520E030E8BF
:100A200049E053E40E94DF059B01AC0160E070E007
:100A300080E89FE30E94DF0527CF052E97FB1EF479
:100A400000940E94340557FD07D00E943C0507FC26
:100A500003D04EF40C943405509540953095219573
:100A60003F4F4F4F5F4F08959095809570956195DA
:100A70007F4F8F4F9F4F0895A1E21A2EAA1BBB1BD9
:100A8000FD010DC0AA1FBB1FEE1FFF1FA217B3075A
:100A9000E407F50720F0A21BB30BE40BF50B661F70
:100AA000771F881F991F1A9469F760957095809534
:100AB00090959B01AC01BD01CF010895A29FB001AB
:100AC000B39FC001A39F700D811D1124911DB29F82
:100AD000700D811D1124911D08955058BB27AA2720
:100AE0000E9485050C94FF060E94F10638F00E94D2
:100AF000F80620F039F49F3F19F426F40C94EE0622
:100B00000EF4E095E7FB0C94E806E92F0E9410072D
:100B100058F3BA17620773078407950720F079F432
:100B2000A6F50C9432070EF4E0950B2EBA2FA02DEB
:100B30000B01B90190010C01CA01A0011124FF278A
:100B4000591B99F0593F50F4503E68F11A16F04085
:100B5000A22F232F342F4427585FF3CF4695379584
:100B60002795A795F0405395C9F77EF41F16BA0B49
:100B7000620B730B840BBAF09150A1F0FF0FBB1FF7
:100B8000661F771F881FC2F70EC0BA0F621F731F40
:100B9000841F48F4879577956795B795F7959E3F9D
:100BA00008F0B0CF9395880F08F09927EE0F97952E
:100BB000879508950E94C40608F481E008950E9474
:100BC000F3050C94FF060E94F80658F00E94F10607
:100BD00040F029F45F3F29F00C94E80651110C9481
:100BE00033070C94EE060E94100768F39923B1F3C3
:100BF000552391F3951B550BBB27AA276217730743
:100C0000840738F09F5F5F4F220F331F441FAA1FD6
:100C1000A9F335D00E2E3AF0E0E832D09150504092
:100C2000E695001CCAF72BD0FE2F29D0660F771F40
:100C3000881FBB1F261737074807AB07B0E809F026
:100C4000BB0B802DBF01FF2793585F4F3AF09E3FAB
:100C5000510578F00C94E8060C9433075F3FE4F3F9
:100C6000983ED4F3869577956795B795F7959F5FEE
:100C7000C9F7880F911D9695879597F90895E1E03A
:100C8000660F771F881FBB1F621773078407BA0799
:100C900020F0621B730B840BBA0BEE1F88F7E095F4
:100CA00008950E9458066894B1110C943307089572
:100CB0000E94180788F09F5798F0B92F9927B751CD
:100CC000B0F0E1F0660F771F881F991F1AF0BA95F0
:100CD000C9F714C0B13091F00E943207B1E0089515
:100CE0000C943207672F782F8827B85F39F0B93F07
:100CF000CCF3869577956795B395D9F73EF49095A3
:100D00008095709561957F4F8F4F9F4F0895E89420
:100D100009C097FB3EF490958095709561957F4F43
:100D20008F4F9F4F9923A9F0F92F96E9BB279395F1
:100D3000F695879577956795B795F111F8CFFAF401
:100D4000BB0F11F460FF1BC06F5F7F4F8F4F9F4F32
:100D500016C0882311F096E911C0772321F09EE890
:100D6000872F762F05C0662371F096E8862F70E0F6
:100D700060E02AF09A95660F771F881FDAF7880FD0
:100D80009695879597F90895990F0008550FAA0B26
:100D9000E0E8FEEF16161706E807F907C0F012168E
:100DA0001306E407F50798F0621B730B840B950B91
:100DB00039F40A2661F0232B242B252B21F40895E6
:100DC0000A2609F4A140A6958FEF811D811D089583
:100DD00097F99F6780E870E060E008959FEF80ECEE
:100DE000089500240A941616170618060906089591
:100DF00000240A9412161306140605060895092EF7
:100E00000394000C11F4882352F0BB0F40F4BF2B65
:100E100011F460FF04C06F5F7F4F8F4F9F4F0895A5
:100E200057FD9058440F551F59F05F3F71F047959B
:100E3000880F97FB991F61F09F3F79F08795089580
:100E4000121613061406551FF2CF4695F1DF08C09F
:100E5000161617061806991FF1CF869571056105BC
:100E600008940895E894BB2766277727CB0197F964
:100E700008950E94C40608F48FEF08950E94510758
:100E80000C94FF060E94F10638F00E94F80620F04C
:100E9000952311F00C94E8060C94EE0611240C94A2
:100EA00033070E94100770F3959FC1F3950F50E030
:100EB000551F629FF001729FBB27F00DB11D639F0C
:100EC000AA27F00DB11DAA1F649F6627B00DA11DB2
:100ED000661F829F2227B00DA11D621F739FB00D58
:100EE000A11D621F839FA00D611D221F749F3327C8
:100EF000A00D611D231F849F600D211D822F762F61
:100F00006A2F11249F5750409AF0F1F088234AF03D
:100F1000EE0FFF1FBB1F661F771F881F91505040A9
:100F2000A9F79E3F510580F00C94E8060C94330716
:100F30005F3FE4F3983ED4F3869577956795B79530
:100F4000F795E7959F5FC1F7FE2B880F911D96954A
:100F5000879597F90895FA01EE0FFF1F3096210546
:100F60003105A1F16115710561F48038BFE39B077C
:100F700049F168949038810561F08038BFEF9B0794
:100F800041F099234AF5FF3FE1053105210519F1AB
:100F9000E8940894E795D901AA2329F4AB2FBE2F32
:100FA000F85FD0F310C0FF5F70F4A695E0F7F73953
:100FB00050F019F0FF3A38F49F779F930DD00F90BF
:100FC00007FC9058089546F00C94EE0660E070E03F
:100FD00080E89FE308954FE79F775F934F933F9398
:100FE0002F930E94A6082F913F914F915F910E94ED
:100FF0003E070C94030829F416F00C94E8060C94B0
:1010000032070C94EE060E941807A8F39638A0F752
:1010100007F80F92E8942BE33AEA48EB5FE70E9467
:1010200054070F920F920F924DB75EB70F920E9426
:10103000EE08E8E6F0E00E9435084F915F91EF91ED
:10104000FF91E595EE1FFF1F49F0FE57E06844272A
:10105000EE0F441FFA95E1F74195550B0E94680881
:101060000F9007FE0C945C080895DF93CF931F93B5
:101070000F93FF92EF92DF927B018C01689406C080
:10108000DA2EEF010E945107FE01E894A591259107
:10109000359145915591A6F3EF010E948505FE011A
:1010A0009701A801DA9469F7DF90EF90FF900F9114
:1010B0001F91CF91DF9108959B01AC0160E070E03A
:1010C00080E89FE30C94DF050C94E8060C94220959
:1010D0000E941807D8F39923C9F3940F511DA3F365
:1010E0009150504094F059F0882332F0660F771FEA
:1010F000881F91505040C1F79E3F51052CF7880F33
:10110000911D9695879597F908955F3FACF0983EAD
:101110009CF0BB27869577956795B79508F4B160E5
:101120009395C1F7BB0F58F711F460FFE8CF6F5FDD
:101130007F4F8F4F9F4FE3CF0C94330716F00C94E3
:1011400022090C94EE0668940C94E8060E94180795
:10115000A8F39923C1F3AEF3DF93CF931F930F93BB
:10116000FF92C92FDD2788232AF02197660F771F6A
:10117000881FDAF720E030E040E85FEB9FE3883932
:1011800020F0803E38F021968F770E946E05E0E9CE
:10119000F0E004C00E946E05EDEBF0E00E9435081F
:1011A0008B01BE01EC01FB2E6F5771097595771FFE
:1011B000880B990B0E94890628E132E741E35FE33F
:1011C0000E945107AF2D9801AE01FF900F911F9122
:1011D000CF91DF910E9485050C94FF06FA01DC0196
:1011E000AA0FBB1F9B01AC01BF5728F4222733274E
:1011F0004427507820C0B75190F4AB2F0024469577
:1012000037952795011CA395D2F3002071F0220F8A
:10121000331F441FB395DAF30ED00C946D05613083
:101220007105A0E88A07B94630F49B01AC01662736
:10123000772788279078309621F020833183428366
:10124000538308959F3F31F0915020F4879577950F
:101250006795B795880F911D9695879597F908958D
:101260000E945E05B7FF0895821B930B0895EE0F51
:10127000FF1F0590F491E02D0994F894FFCF010031
:101280000000005E01BE00EB00AB011C01FA000E85
:04129000010D0A0042
:107E0000112484B714BE81FFF0D085E080938100F7
:107E100082E08093C00088E18093C10086E0809377
:107E2000C20080E18093C4008EE0C9D0259A86E02C
:107E300020E33CEF91E0309385002093840096BBD3
:107E4000B09BFECF1D9AA8958150A9F7CC24DD24C4
:107E500088248394B5E0AB2EA1E19A2EF3E0BF2EE7
:107E6000A2D0813461F49FD0082FAFD0023811F036
:107E7000013811F484E001C083E08DD089C08234E0
:107E800011F484E103C0853419F485E0A6D080C0E4
:107E9000853579F488D0E82EFF2485D0082F10E0AE
:107EA000102F00270E291F29000F111F8ED06801E7
:107EB0006FC0863521F484E090D080E0DECF843638
:107EC00009F040C070D06FD0082F6DD080E0C81688
:107ED00080E7D80618F4F601B7BEE895C0E0D1E017
:107EE00062D089930C17E1F7F0E0CF16F0E7DF06D8
:107EF00018F0F601B7BEE89568D007B600FCFDCFD4
:107F0000A601A0E0B1E02C9130E011968C91119780
:107F100090E0982F8827822B932B1296FA010C0160
:107F200087BEE89511244E5F5F4FF1E0A038BF0790
:107F300051F7F601A7BEE89507B600FCFDCF97BE46
:107F4000E89526C08437B1F42ED02DD0F82E2BD052
:107F50003CD0F601EF2C8F010F5F1F4F84911BD097
:107F6000EA94F801C1F70894C11CD11CFA94CF0C13
:107F7000D11C0EC0853739F428D08EE10CD085E9AC
:107F80000AD08FE07ACF813511F488E018D01DD067
:107F900080E101D065CF982F8091C00085FFFCCF94
:107FA0009093C60008958091C00087FFFCCF809118
:107FB000C00084FD01C0A8958091C6000895E0E648
:107FC000F0E098E1908380830895EDDF803219F02E
:107FD00088E0F5DFFFCF84E1DECF1F93182FE3DFCA
:107FE0001150E9F7F2DF1F91089580E0E8DFEE27F6
:047FF000FF270994CA
:027FFE00040479
:00000001FF
